S01F0000416363656C65726F6D657465725F4149533336323444512E737265632A
S1130000B00A0020F9160000F5160000F5160000ED
S113001000000000000000000000000000000000DC
S1130020000000000000000000000000F5160000C1
S11300300000000000000000F5160000F5160000A6
S1130040F5160000F5160000F5160000F516000080
S1130050F5160000F5160000F5160000000000007B
S1130060F5160000F5160000F5160000F516000060
S1130070F5160000F5160000F5160000F516000050
S1130080F5160000F5160000F5160000F516000040
S1130090F5160000F5160000F5160000F516000030
S11300A0F5160000F5160000F5160000000000002B
S11300B00000000010B5064C2378002B07D1054B37
S11300C0002B02D0044800E000BF0123237010BDC0
S11300D0E80100200000000064650000084B10B532
S11300E0002B03D00749084800E000BF0748036815
S11300F0002B00D110BD064B002BFBD09847F9E72D
S113010000000000EC01002064650000646500004C
S11301100000000010B51D4C642323601C4B636079
S11301200023A36023732376802292032261012299
S11301305242A282E36123622532A354A3620832AD
S1130140A3540132A3540132A354D7332386114B51
S1130150E3822000343022000F49104B9847626B31
S11301600721D3691942FCD1136802210B431360A0
S1130170064B5C8F00231020518B014204D10133C4
S1130180A342F9D31023538310BDC04604020020B8
S1130190480D0000102700000010004289050000EF
S11301A0F0B5C64600B584B00D00904601AC0C22F3
S11301B000212000144B984718232380173B6380A9
S11301C06560124D280034302100114B98474035AA
S11301D06560451EA8414542ADB2013500240B4E71
S11301E034360C4F01A93000B847002802D001343E
S11301F0AC42F7D14023054AD35C4246137004B0A5
S113020004BC9046F0BDC0465D1800000402002006
S1130210890B0000610B0000F0B585B00A4B9847CC
S113022001AC0A4D230007CD07C3094E3436210023
S11302303000084FB847230007CD07C32100300022
S1130240B84705B0F0BDC04615010000706100005C
S113025004020020750B000010B582B001A9272309
S11302600B706B46DC1D2200034B9847237801205A
S1130270184002B010BDC046A1010000F0B585B021
S113028006000F0002A928230B7003AC2200084DBE
S1130290A84701A929230B700D226A443000A847FE
S11302A062781202237813433B8005B0F0BDC04648
S11302B0A1010000F0B585B006000F0002A92A23B1
S11302C00B7003AC2200084DA84701A92B230B7027
S11302D00D226A443000A84762781202237813433F
S11302E03B8005B0F0BDC046A1010000F0B585B06B
S11302F006000F0002A92C230B7003AC2200084D4A
S1130300A84701A92D230B700D226A443000A84789
S113031062781202237813433B8005B0F0BDC046D7
S1130320A10100000170272383703022C270183AA3
S1130330C280704770B582B005000E0000226B4683
S1130340DA80064C6B46991D2800A0470028F9D195
S11303506B4606331B88337002B070BD570F000024
S113036070B505008CB2034E21002800B047002868
S1130370FAD170BD2D0F000030B591B08023DB059C
S1130380009300230193FF2269460A8100228B72A5
S1130390CB72012124206C46215401302154253193
S11303A06354013163540A93053163540131635436
S11303B005932382E3762276227762761323A3764B
S11303C0627796231B02089380235B030393194BE4
S11303D00C93194B0D9301235B420E930F93174813
S11303E0174B1860174A184B1A60184A184B1A60B2
S11303F06A461849184B9847184D2B68986800218D
S1130400174CA0472B6858680021A0470B4D124C8D
S11304106A4610492800A0470028F9D1074B1A68FA
S1130420D369002BFCD1136802210B43136011B074
S113043030BDC04602001B0002001C004C0200201C
S1130440A402002061030000A00200203503000084
S11304509C020020000C0042310C00001800002017
S11304605522000070B582B001AC00232370012630
S11304706670A37021002320034DA8472670210035
S11304800020A84702B070BD01140000F0B587B089
S1130490234B9847234B9847234B9847234B984724
S11304A0234B9847234C0C342000234B984703A933
S11304B00F230B700F2502AB9C4665442A002000D5
S11304C01E4B984729781E481E4B98471E481F4BC1
S11304D09847184C0C3400941D4D01940098A8477B
S11304E00028FBD005AF3900019C2000194B984728
S11304F00A2602AB9C466644310001942000164B48
S1130500984704AC21000198144B98470022A35E3D
S11305100021725E0020395E11480A4FB847DDE7BA
S1130520C9170000CD1300001D130000790300005B
S1130530650400004C02002019020000A101000023
S1130540886100004D2100009461000041220000F8
S1130550590200007D020000B5020000ED02000017
S1130560A461000010B5182102480C30024B9847D2
S113057010BDC0464C02002025030000016807227C
S1130580CB691A42FCD17047F0B5D6464F46464671
S1130590C0B58AB006000F00140031600800974B04
S11305A09847974A116A851C0123AB400B43136299
S11305B009A9237B0B701430C5B22800914B9847CE
S11305C02800914B9847207B0021904B98473B682B
S11305D01C209B0705D50AB01CBC90469946A24630
S11305E0F0BD3B681738DB07F5D414233B60336850
S11305F098461800814B98470500802308AA137079
S113060000235370012208A98A70CB70E069276A1D
S1130610002800D1AFE008AB1870022308AA537079
S1130620000CC0B211007A4B9847002F00D1A7E00C
S113063008AB1F70022308AA53703F0CF8B21100D4
S1130640734B9847A38AF380E38A3381237E802205
S1130650002B04D16F4B9B789B07DB0FDA01A16859
S113066023690B4313432422A25C002A02D0802274
S1130670D2051343A26A13432C22A25C002A03D19D
S113068080229204914202D18022120513432D222A
S1130690A25C002A02D08022120413432E22A25C00
S11306A0002A02D08022D203134342461268134325
S11306B04246136080235B00536028001430C0B2AC
S11306C0554B98470790FA239B0022685A4391465A
S11306D063689A46514DA847009001914B465800D3
S11306E0A84702900391208EA847049005914C4F8F
S11306F04C4A4D4B00980199B84702000B000498EE
S11307000599B847494E0022494BB04704900591DA
S11307104846A84702000B0004980599B847020010
S11307200B00444D00980199A847029A039BB047D7
S11307300022414BA847029A039B404DA847404BD7
S11307409847050080239B04A2689A421ED00300A8
S11307504020FF2D00D93EE700240020FF251D4046
S1130760240625430004FF231B0418400543434685
S1130770DD6000202FE700214046324B98474AE7CE
S1130780012140462F4B9847070051E7FA26B6004F
S113079053465E430098019902000B00234CA04786
S11307A00090019130001D4B98470022264BB8471A
S11307B002000B0000980199204CA04700221E4B18
S11307C01C4CA0471E4B9847041E0CD031000798C0
S11307D01E4B98470238001B2B00FF2D0CD8FF2816
S11307E0BCD94020F7E67100481E079B9C46604434
S11307F0164B98470138EFE74020ECE6E51200007D
S113080000040040CD150000411500003511000022
S1130810C516000000200041E9150000C560000075
S11308206D54000095D626E80B2E113EE5450000D8
S1130830000024406D5900000000F03F054C00000A
S1130840D95F000081110000000008402942000027
S113085003681A7E920707D502221A765B8B9B07E0
S11308604120DB17184070475A8B520706D5596848
S1130870C02292020A435A601820F4E70020F2E7EB
S113088030B50268002301240225117E21420BD1D8
S1130890117E294206D101339BB201899942F4D8D1
S11308A0122002E0002000E0002030BD10B50468F2
S11308B062688023DB02134363606162024B9847E2
S11308C00123237610BDC04681080000F0B5DE4642
S11308D057464E464546E0B583B00600894605684E
S11308E04C882B681B01DB0F9A464B7A002B2BD1CB
S11308F06B68584A13406B604B461B7A002B27D118
S11309004B461B885B004A46527A920313430122EA
S113091013436B623000504B984701905346002BB1
S113092003D04B465B88012B3BD06B68494A13408C
S11309306B60019B002B3AD0019803B03CBC9046FD
S11309409946A246AB46F0BD897A444B9847CFE717
S11309504B461B885B004A46527A9203134380221B
S1130960120213436B6230003B4B984701906B6853
S1130970384A13406B600028DED13000384B98476A
S113098001900028D8D14B461B881B0A78221343B8
S11309905B004A46527A920301210A4313436B6275
S11309A0B8E76A688023DB0213436B60C1E7300059
S11309B02B4B984701900028BED1013CA4B280463D
S11309C0284B9B4615E0012C20D03000264B98473D
S11309D043465F1CBFB22823EB5C4A46526841463B
S11309E0535430001C4B9847013CA4B2002815D145
S11309F0B8465C4514D06B8B9B0627D5F37A002B45
S1130A00E3D05346002BDED1002CDED16A6880236C
S1130A10DB0213436B60013CA4B2EAE7B8460190E1
S1130A20B37A002B09D130000F4B98472823EA5C96
S1130A304B465B6841465A547EE730000A4B984760
S1130A406A68C0239B0213436B60ECE74123019364
S1130A5072E7C046FFFFFBFF81080000AD080000FD
S1130A6051080000FFFF00007D050000F0B5DE46E0
S1130A7057464E464546E0B583B006000F0005686C
S1130A804C88324B98477B7A002B1DD16B68304AD7
S1130A9013406B603B7A002B1BD03B885B007A7A57
S1130AA0920313438022120213436B623000294BDA
S1130AB098470190002813D0019803B03CBC90469D
S1130AC09946A246AB46F0BDB97A3000224B98470E
S1130AD0DCE73B885B007A7A920313436B62E5E7B9
S1130AE030001E4B9847031E0190E5D1A046002418
S1130AF020339946154B9B46164B9A46444515D0D0
S1130B006B8B4A4613421DD03000D8477B681A5D70
S1130B102823EA543000D047002806D16B8B0134D7
S1130B205B07EBD51E23019300E00190B37A002B01
S1130B30C2D03000054B98476A68C0239B02134318
S1130B406B60B9E741230193B6E7C0467D05000019
S1130B50FFFFFBFF81080000AD0800005108000002
S1130B6010B501238372C372014B984710BDC04670
S1130B70CD08000010B501238372C372014B98475E
S1130B8010BDC0466D0A000010B500238372013306
S1130B90C372014B984710BD6D0A0000F0B5C646FC
S1130BA000B50C00904600280FD1002A11DD8F18E3
S1130BB0094E0A4D306821002B6898470134BC4225
S1130BC0F8D1404604BC9046F0BD01235B429846F0
S1130BD0F7E78046F5E7C046A40200209C02002007
S1130BE0F0B5C64600B50E0015000138022810D82D
S1130BF0002A11D000240C4B98460C4F4346186829
S1130C00315D3B689847002808DB0134A542F5D1E3
S1130C1006E00124644203E0140001E0012464427C
S1130C20200004BC9046F0BDA4020020A0020020D5
S1130C30F0B5DE4657464E464546E0B591B0050050
S1130C400C00160029600800AD4B98470200236889
S1130C500520DB0706D511B03CBC90469946A24658
S1130C60AB46F0BD236817309B07F4D4A549086A46
S1130C70971C0123BB4003430B620FA92D27F35D8F
S1130C800B701432D3B2029318009F4B984702980A
S1130C909E4B9847F05D00219D4B9847F37A6B710A
S1130CA02423F35CAB712523F35CEB71F37E2B728D
S1130CB0337F6B722B6898461800914B9847143019
S1130CC000220E2306A98C4663441A80328A0292BB
S1130CD08023DB019A4200D19FE00FD9C023DB01BE
S1130CE0029A9A4200D193E080231B029A4200D0D8
S1130CF001E1032306930023079308E080239B016B
S1130D009A4200D0F7E0102306930F3B0793336811
S1130D109B46F368049373699A46337E05932623AE
S1130D20F35C039373689946002B00D1A1E0802300
S1130D305B05994500D185E0737E002B02D0B37E1C
S1130D40424693732A68029FD369002BFCD10E3369
S1130D5006AA944663441B88424693815B46049AE0
S1130D601343524613434A4613431F43059B1B0236
S1130D701F43039B5B071F432723F35C002B01D115
S1130D8004331F43737E9B02327F52021343727FEC
S1130D90120213432422B25C520413432522B25C90
S1130DA012041343B17AF27A114319433389FF2BA6
S1130DB000D182E080225204174319432C23F35CB0
S1130DC0002B03D1534B9B789B0701D580231F43F2
S1130DD02A68D369002BFCD1434659602A68D36939
S1130DE0002BFCD143461F600EAB80221A700022F8
S1130DF05A70DA709A70336B0A93736B0B93B36BFC
S1130E000C93F36B02930D9300270AAD424E63E0FB
S1130E1008230693073B079379E733689B46F368F7
S1130E20049373699A46337E05932623F35C0393F4
S1130E3073689946002B18D080235B05994501D02F
S1130E40002025E02723F35C002B00D074E7336AED
S1130E501F00C0B2314B984701000E2206AB9C46DE
S1130E60624438002E4B984712E00823069300236F
S1130E7007932723F35C002B0ED0069B0093079B5C
S1130E800E2206A98C466244B16A306A254FB847DF
S1130E90002800D0DFE64FE7336A1F00C0B21F4BC3
S1130EA098470100069B0093079B0E2206A88446E0
S1130EB0624438001B4FB847EAE7F37E002B00D1A9
S1130EC07CE78023DB041F4378E72000164B984718
S1130ED007E00137042F0CD0F9B2BB0058590028A1
S1130EE0F3D0431CF5D00EA90870000CC0B2B04773
S1130EF0EFE70020AFE6102306930023079306E7ED
S1130F00E512000000040040CD150000411500006A
S1130F103511000000200041C5160000E91500004D
S1130F2079100000A110000081110000C3791C2277
S1130F30002B01D1100070470368187E173AC007D0
S1130F40F8D5DA69002AFCD1198502211A7E0A42F1
S1130F50FCD00022EEE782791C23002A01D118007C
S1130F6070470268107E173B4007F8D5D369002B01
S1130F70FCD1538BDBB298061DD0980703D502230E
S1130F8053831833EBE7580703D5042353831A33E9
S1130F90E5E7D80703D5012353831233DFE7D806E7
S1130FA003D5102353833233D9E79B0603D520237B
S1130FB053832133D3E7138D0B800023CFE7F0B5A0
S1130FC0DE4657464E464546E0B587B08046049116
S1130FD016001F000022002300218B463F2401201D
S1130FE02100009601975C4603944446059413E05F
S1130FF02024641A0500E540A84614E0009C019DE5
S1131000121BAB415C464D462C43A346039C45460C
S11310102C430394013925D3202464420C19E7D4CA
S11310200500A540A84604008C40A14692185B41E7
S113103014001D00059E4F463E40B446049E47469C
S11310403E40B246664657463E4303D0060026431A
S113105032002B00009C019D9D42DBD8CED19442EE
S1131060D8D8CBE7039B5846190007B03CBC904640
S11310709946A246AB46F0BD10B54908402300246A
S1131080814202D2180010BD1C00091A631C9BB2D5
S11310908842F9D94023FF2CF4D814800023F1E7C7
S11310A0F0B583B00F00160008AA117804004C4371
S11310B04022BC4202D9100003B0F0BD002B14D171
S11310C0020008000021194CA04701003A00002347
S11310D00020174CA04700220123121A8B41120C46
S11310E01B041A4332800022E5E70022012BF9D1C8
S11310F00A00002300210D4CA04702000B000092BF
S11311000193380000210A4CA047050080239B016D
S113111040229842CFD8790FF800009A019BA0474B
S1131120EA00821AD2B252032A43DBE79145000057
S1131130BF0F000010B582B004000E4B1B78002BCB
S113114007D0002905D10B4B5B78834210D01D20BA
S11311500CE001A90C701320074B98471320074B90
S11311609847044B5C7001221A70002002B010BD35
S11311700020FBE76C020020CD15000041150000A3
S11311803C4B984231D00AD93B4B98424DD03B4B13
S1131190984254D03A4B984237D000207047394B8C
S11311A098420CD0384B9842F7D1012917D0002926
S11311B057D0022915D0032915D00020EEE70129C4
S11311C007D000294BD0022905D0032905D00020DF
S11311D0E4E72E48E2E72E48E0E72E48DEE72E4813
S11311E0DCE72E48DAE72E48D8E7012907D00029A2
S11311F039D0022905D0032905D00020CEE729489B
S1131200CCE72948CAE72948C8E7012907D00029BB
S11312102BD0022905D0032905D00020BEE724489D
S1131220BCE72448BAE72448B8E7022903D00329D5
S113123003D00020B2E72148B0E72148AEE70129F6
S113124007D0002913D0022905D0032905D0002096
S1131250A4E71C48A2E71C48A0E71C489EE71C48DA
S11312609CE71C489AE71C4898E71C4896E71C48EA
S113127094E7C0460010004200180042001C0042DF
S11312800014004200080042000C00420300050064
S113129002000A0002000B0002001100020012000A
S11312A0020013000300090002000E0002000F00F8
S11312B003001100030012000300130003002A00BE
S11312C003002B000200310002001400020015008C
S11312D003000400020010000300080003001000D3
S11312E00200300030B587B00B4B6A4632CB32C2B5
S11312F032CB32C2009B83420BD001239A00694651
S11313005258824206D00133062BF7D1002007B091
S113131030BD0023D8B2FAE7C461000070B50020E4
S1131320084B98470500084CFA218900A047074B51
S1131330186007492800A047064B18600522064B91
S11313401A6070BDB5140000294200000800002096
S113135040420F000C00002010E000E00C4B1B6822
S1131360002B06D1EFF31083002B07D00022094B8A
S11313701A70074A136801331360704772B6BFF3DB
S11313805F8F0022044B1A700132024B1A70F0E78F
S1131390700200207402002010000020084B1A681C
S11313A0013A1A601B68002B09D1064B1B78002BED
S11313B005D00122044B1A70BFF35F8F62B67047E9
S11313C0700200207402002010000020F0B583B0E9
S11313D001AC012565700027A7702570210000204D
S11313E0054EB047054B9D61277065702100232091
S11313F0B04703B0F0BDC0460114000000440041F2
S113140000B583B001AB80221A700A785A704A780A
S11314109A708A78DA701900014B984703B000BDBE
S1131420C516000010B5082803D880001B4B1B58B4
S11314309F46002030E01A4B18692DE0194B1B6AB7
S11314409B059B0F1848D84026E0154B586923E0AC
S1131450134B1B6800209B071ED512491022CB6832
S11314601A42FCD00E4B1B685B0701D40F4813E0F3
S113147000200F4B98470A4B9B681B041B0C5843D6
S11314800AE05023074AD35C00205B0704D5044BD1
S1131490D86801E08020000210BDC046DC61000075
S11314A0780200200008004000127A00006CDC0280
S11314B0E915000070B504001A4A53785BB2002B9A
S11314C0FBDB194B9847194B1C70164A53785BB2D7
S11314D0002BFBDB134E7068C004C00E144B9847FE
S11314E00500124B1C707668F602F60F114B1C7047
S11314F00C4A53785BB2002BFBDB0A4B9C6824023A
S1131500240C0D4B9847002E07D1012C07D921003C
S113151028000A4B9847050001E00134E540280003
S113152070BDC046000C00405D130000040C004078
S113153025140000080C00409D13000029420000FF
S113154010B50400064B9847064B1C70064A538896
S11315508021C9010B435380044B984710BDC046FA
S11315605D130000020C0040000C00409D130000BD
S113157010B504000F4B98470F4B1C700F4A53884B
S11315801B05180F53880E490B40538053880D498F
S11315900B40538011008022D2014B881342FCD1AE
S11315A006494A8803020648024013434B80064B0F
S11315B0984710BD5D130000020C0040000C004071
S11315C0FFF0FFFFFFBFFFFF9D13000010B50C7875
S11315D024020443024B9847A4B2024B5C8010BD22
S11315E071150000000C004010B50400064B98472C
S11315F0064B1C70064B5C882405240F054B98474A
S11316002000054B984710BD5D130000020C0040FC
S1131610000C00409D130000B514000030B5D378D1
S1131620002B35D11378802B29D01B06802464022B
S1131630234354780225AC4306D19478002C20D15E
S11316408024A402234341605478013C012C1CD91A
S11316500D042D0CA024E4052C431C4384620D0CC2
S1131660D02424062C431C438462D478002C22D139
S11316705B031CD59378012B1ED0416117E0002336
S1131680D7E7C024E4022343DDE70D4C2340DFE722
S113169041600C04240CA023DB05234383620C0C5F
S11316A0D0231B0623438362D378002B03D15378C2
S11316B0013B012B02D930BD8161F8E78160FAE773
S11316C0FFFFFBFF10B50A00C1090023002904D164
S11316D04309DB0105498C4663441F242040012152
S11316E081401800024B984710BDC0460044004199
S11316F01D160000FEE7000010B5264A264B9A424C
S113170011D01A00254B9A420DD2254A03339B1A55
S11317109B0801339B0000221F481E498C588450AB
S113172004329A42FAD11F4A1F4B9A420AD2D34337
S11317301D495B1803218B4304339B18002102C20B
S11317409342FCD1194AFF21194B8B439360FD3915
S113175090235B00174AD150174B9A7B2E318A4352
S113176020210A439A739A7B0C218A4308210A4355
S11317709A739A7B03218A4302210A439A730F4A7C
S1131780536880210B4353600D4B98470D4B98478A
S1131790FEE7C0466465000000000020E801002068
S11317A004000020E8010020AC02002000ED00E06D
S11317B0000000000070004100480041004000416A
S11317C0151800008D040000014A024B1A6070478E
S11317D040420F00140000200300064A1268002A49
S11317E004D0044A1068C318136070470249014AC0
S11317F01160F6E790020020B00A00200120404268
S1131800704780239B014B60002070470120704784
S11318100020704770B500260C4D0D4C641BA410BD
S1131820A64209D1002604F08BFE0A4D0A4C641B23
S1131830A410A64205D170BDB300EB5898470136F9
S1131840EEE7B300EB5898470136F2E74C65000029
S11318504C6500004C6500005465000003008218CC
S1131860934200D1704719700133F9E7F0B58BB09A
S113187014001D1E129953DA802424061B191D001E
S113188014002D230B702023149E03229E43462E06
S113189007D03300453B59424B411099013ACB18CC
S11318A0109309AB049308AB0393139B0092029328
S11318B0109B220001932B0000F0DAFE0700472E54
S11318C002D1119BDB0724D5109BFB180793462EEE
S11318D014D13B78302B0CD10022002320002900A6
S11318E002F028FE002804D10123109A9B1A139AAF
S11318F01360139B079A1B68D318079300220023D5
S11319002000290002F016FE302200280DD0079B8B
S113191009933800099B159ADB1B13600BB0F0BDCB
S11319200023AFE7591C09911A70099B0799994242
S1131930F8D8EEE7F0B52B2385B007000C00027051
S1131940861C002901DA2D234C427B70092C23DDEF
S113195002ABDD1D6B1E20000A21019302F0D4FDB1
S11319606B1E3031197020000A2102F0E7FC0400DC
S113197009280ADC023D30342C7002AB07333000F6
S1131980AB4204D8C01B05B0F0BD019DE2E72B7843
S1131990013533700136F0E73023E4183370B01C9E
S11319A07470EFE7F0B595B00C000A920B931A9D92
S11319B0099001F0D3FD036818000D9300F000FDB9
S11319C00023129323680E900C930C99277E2B68A6
S11319D00722C90547D59B1893431A0008322A6089
S11319E01A685B68A264E3640122E56CA66C6B0070
S11319F05B080F935242A74B30000F9904F0CCFAC6
S1131A00002800D006E20122A24B524230000F9976
S1131A1002F0A0FD002800D0FCE1002200233000E9
S1131A20290002F08DFD002803D023002D2243332A
S1131A301A70994D472F00D8984D032300260C9A0D
S1131A40236101339A4322600B9B13AA0093210064
S1131A500A9B099800F0F2F9431C00D09CE0012095
S1131A60404215B0F0BD0733B6E780236268DB005F
S1131A70511C45D1073262600C9A0021134312AA0B
S1131A80059211AA0392232223600691019308A9C7
S1131A90636852180292009332002B00049709984D
S1131AA0FFF7E4FE20233A0005009A43472A07D1B2
S1131AB0119BDA1C02DB626893425BDD023FFFB2DA
S1131AC01199652F3BD8200001393A00503011910B
S1131AD0FFF730FF129A060083182361012A02DC03
S1131AE02268D20701D501332361232308AA9B1856
S1131AF01B78002BA8D023002D2243331A70A3E7B0
S1131B00672F01D0472FB7D1002A16D00C9908A807
S1131B100B430021069112A9059111A903912321D8
S1131B2009182360019300922B000497029132005C
S1131B300998FFF79BFE0500BAE701229BE7662F91
S1131B4019D1636800290CDD2161002B02D12268C0
S1131B50D20702D501335B182361119B0026A365CC
S1131B60C3E7002B03D101222168114200D09A1C43
S1131B702261F2E76727119B1298834205DB2268F2
S1131B802361D207E9D50133E6E70122002B01DC0A
S1131B909218D21A1218EBE72268530508D4236965
S1131BA02A000A9909980B9DA847431C29D156E796
S1131BB0652F00D8DCE0A06CE16C0022002302F069
S1131BC0B9FC002835D00123354A0A9909980B9DA0
S1131BD0A847431C00D142E7119B129A934202DBAF
S1131BE02368DB070DD50B9D0E9B0D9A0A99099866
S1131BF0A8470025431C00D131E7129B013B9D42BD
S1131C000BDB236800259B0700D5FDE0139BE068F0
S1131C10984200DB25E7180023E7220001231A324B
S1131C200A9909980B9EB047431C00D117E7013568
S1131C30E3E7119B002B35DC0123194A0A99099823
S1131C400B9EB047431C00D109E7119B002B05D123
S1131C50129B002B02D12368DB07D2D50B9E0E9B6F
S1131C600D9A0A990998B0470026431C00D1F6E65C
S1131C70119B5B429E4201DB129B91E722000123F0
S1131C801A320A9909980B9FB847431C00D1E6E61B
S1131C900136EDE7FFFFEF7F0862000004620000F9
S1131CA014620000A36D129E9E4200DD1E00002EF1
S1131CB035DC00230C93F343DB170F930F9BA76DC5
S1131CC00C9A3340FB1A9A4232DB119B129A9342CC
S1131CD03CDB2368DB0739D4129E119AF31BB61A36
S1131CE09E4200DD1E00002E39DCF7430025FB1761
S1131CF00C93119A129B0C999B1A32000A409B1A5E
S1131D009D4200DB7DE7220001231A320A990998DB
S1131D100B9FB847431C00D1A1E60135E9E7330026
S1131D202A000A9909980B9FB847431CC1D196E62B
S1131D30220001231A320A9909980B9FB847431CC1
S1131D4000D18CE60C9B01330C93B7E70E9B0D9AE4
S1131D500A9909980B9EB047431CBDD17FE6EA1946
S1131D6033000A9909980B9DA847431CBDD176E618
S1131D70129B012B02DC01231A4238D001232A00D2
S1131D800A9909980B9FB847431C00D167E60E9B3C
S1131D900D9A0A9909980B9FB847431C00D15EE637
S1131DA0A06CE16C0022002302F0C4FB002808D0E0
S1131DB00025129B013B9D420DDB22003300503273
S1131DC0EFE6129B6A1C013B0A9909980B9DA847F0
S1131DD0431CF2D143E6220001231A320A990998DE
S1131DE00B9FB847431C00D139E60135E1E72A00CF
S1131DF0EAE72200012319320A9909980B9EB04799
S1131E00431C00D12BE60135E368139A9B1A9D42CB
S1131E10EFDBFBE632002B003000290004F0BCF8B5
S1131E20002800D121E6034D472F00D905E6024DD5
S1131E3003E6C046106200000C620000F7B515000E
S1131E4001938A680B6900900C00934200DA130036
S1131E5022002B6043321278002A01D001332B6018
S1131E6023689B0602D52B6802332B600627236860
S1131E701F4027D0230043331B785A1E9341226806
S1131E80920630D42200019943320098089EB0474C
S1131E90431C25D0062320682A68E16803400025F6
S1131EA0042B03D18D1AEB43DB171D40A368226971
S1131EB0934201DD9B1AED180027BD4220D100207A
S1131EC010E00137E3682A689B1A9F42D2DA2200A5
S1131ED00123193201990098089EB047431CF0D1A0
S1131EE001204042FEBD3020E1184331087021003A
S1131EF05A1C45310978A218433202331170C1E7E4
S1131F00220001231A3201990098089EB047431C0D
S1131F10E6D00137D1E70000F0B58BB006920A0095
S1131F2043320793059004920A7E0C00109B6E2A9C
S1131F3000D18FE017D8632A2CD008D8002A00D10A
S1131F4099E0582A54D026004236327029E0642A97
S1131F5001D0692AF7D121681A68080623D5111D12
S1131F601960156825E0732A00D188E008D86F2A23
S1131F7029D0702AE7D1202209680A43226003E0AD
S1131F80752A20D0782ADED12200782145321170BA
S1131F906C4A30E00E001A684236111D196013684D
S1131FA03370012379E04906D9D5111D1960002346
S1131FB0D55E002D03DA2D23049A6D421370624B13
S1131FC00A2703932FE020681968050603D5081D26
S1131FD018600D6805E04006F9D50D68081D186005
S1131FE0ADB2594B082703936F2A18D00A2716E07D
S1131FF045310A70544A03921A682168101D18600A
S11320001568080622D5CB0702D520231943216081
S11320101027002D03D1202322689A432260230035
S1132020002243331A706368A360002B5CDB042234
S1132030216891432160002D58D1049E002B64D067
S11320402600039B42361B7833705EE04806DAD5DF
S1132050ADB2D8E709681A68080605D5111D1960DC
S1132060136862691A6006E04906F7D5111D196004
S11320701368A28A1A800023049E236154E01A681C
S1132080111D1960166800216268300001F0E2FA3F
S1132090002801D0801B6060636823610023049AD8
S11320A0137041E02369320006990598079DA847FB
S11320B0431C43D0236800259B070FD4099BE06889
S11320C098423DDA18003BE02200012319320699B8
S11320D00598079EB047431C30D00135E368099A40
S11320E09B1A9D42F0DBE9E7002DA9D0049E28004D
S11320F0390002F01FF9039B013E5B5C280033703A
S1132100390002F091F8051EF1D1082F09D1236896
S1132110DB0706D563682269934202DC3023013E63
S11321203370049B9B1B2361079B09AA0093210026
S1132130069B0598FFF782FE431CB3D10120404261
S11321400BB0F0BD27620000166200000FB40B4B09
S113215013B51C68002C05D0A369002B02D1200004
S113216001F066F905AB049AA1682000019301F01F
S113217045FE16BC08BC04B01847C0461800002031
S113218070B505000E00002804D08369002B01D12E
S113219001F04EF9AB69AC68002B02D1280001F0C4
S11321A047F9244B9C420FD16C68A3891B0702D5C5
S11321B02369002B20D12100280000F05FF90028BA
S11321C01AD00120404270BD1B4B9C4201D1AC6827
S11321D0EBE71A4B9C42E8D1EC68E6E7013B013699
S11321E0A360002B04DAA269934216DB0A2914D0F7
S11321F023685A1C226019703178A3680029EDD134
S1132200013BA360002B0FDA22000A31280000F002
S1132210DFF8431CD5D00A20D5E72200280000F0BF
S1132220D7F8431CE8D1CCE70A2023685A1C226063
S11322301870C8E768620000886200004862000005
S113224010B5034B01001868FFF79AFF10BDC04694
S1132250180000204A424A41802310B55200DB0096
S113226000F002F810BD0000F0B51D004F4B85B022
S11322701E6804000F000092002E05D0B369002BE5
S113228002D1300001F0D4F8494B9C4250D174681B
S1132290009B022B05D0012B00D984E0002D00DA2D
S11322A081E02100300001F055F8616B002908D06D
S11322B023004433994202D0300001F0CFFC0023C4
S11322C063630023A3616360A3891B0603D52169AB
S11322D0300001F0C3FCA389364A1340A381009B5C
S11322E0022B5AD003AB02AA2100300001F042F9BC
S11322F0A3891843A081002D24D1029D280001F058
S11323009FF90195071E42D1029B0193AB4239D13B
S1132310012040420223A2891343A3810023A36026
S113232023004733236023610123636105B0F0BDBB
S1132330214B9C4201D1B468AAE7204B9C42A7D10F
S1132340F468A5E7002FD9D0B369002B02D130007F
S113235001F06EF8009B012B03D1A389009A1A4364
S1132360A2810820A389276027616561184018D0DD
S1132370012018400023984211D06D42A360A5614A
S11323801800D3E7019801F05BF9071EC0D0802341
S1132390A289019D1343A381D6E70020BAE7A56073
S11323A0C4E7A060C2E701204042BFE71800002054
S11323B0686200005CF3FFFF88620000486200006E
S11323C00023C25C0133002AFBD1581E7047000071
S11323D0F8B505000E001400002804D08369002B12
S11323E001D101F025F8224B9C422DD16C68A369E0
S11323F0A360A3891B0731D52369002B2ED0236842
S11324002269F7B2981A6369F6B2984205DB210093
S1132410280000F09FFF002826D1A3680130013B6B
S1132420A36023685A1C22601F706369984204D019
S1132430A389DB071AD50A2E18D12100280000F041
S113244089FF002812D00FE00A4B9C4201D1AC68EE
S1132450CDE7094B9C42CAD1EC68C8E721002800AB
S113246000F00CF80028CAD0012676423000F8BDEE
S1132470686200008862000048620000364B70B554
S11324801D6806000C00002D05D0AB69002B02D19D
S1132490280000F0CDFF314B9C420FD16C680C2317
S11324A0E25E93B219072DD4D90611D40923012071
S11324B0336037331343A381404270BD284B9C42A1
S11324C001D1AC68EBE7274B9C42E8D1EC68E6E726
S11324D05B0713D5616B002908D02300443399426C
S11324E002D0300001F0BAFB002363632422A389E5
S11324F09343A38100236360236923600823A28993
S11325001343A3812369002B0BD1A0218022A3892B
S1132510890092000B40934203D02100300001F067
S113252051F80123A289134011D00023A3606369E9
S11325305B42A361002023698342BED10C23E25E87
S11325401306BAD540231343A3810138B5E7920794
S113255000D46369A360EDE71800002068620000FE
S11325608862000048620000F0B503690C6989B014
S11325700700059100269C426DDC0B00013C1433DE
S1132580A50003935B1904930300143302935D19AC
S1132590049B28681B68591C019301F045FE0190B7
S11325A0B0422DD0039B02989C460696624608CA08
S11325B09446019A99B251431B0C534389190A0C4E
S11325C09B18079302881E0C069B89B2D2180368D5
S11325D0521A190C6B469B8BCB1A11145B181914E5
S11325E092B21B041A43049B069104C06345DDD2D6
S11325F02B68002B04D1029B043DAB422ED33C61DB
S11326000599380001F04BFA002823DB0025019BD3
S1132610029801330399019308C9028855199AB2A3
S1132620AA1A05681B0C2D0CEB1A15145B191D1442
S113263092B21B04134308C0049B8B42ECD2029A4F
S1132640A300D3181A68002A04D1029A043B9A42C0
S113265009D33C61019E300009B0F0BD2B68002B0A
S1132660CDD1013CC7E71A68002AF2D1013CECE75E
S1132670F0B516001F00446A9DB00490259D06968F
S11326800797002C08D1102000F0DAFF049B586251
S1132690446084600460C460049B5B6A1968002918
S11326A00BD05A68012393404A608B60049801F070
S11326B01DF80022049B5B6A1A60079B002B1FDA3B
S11326C001232B607B005B080793079CB74B220018
S11326D019931A409A4216D1B54B249A1360069B5B
S11326E0002B03D1240301D100F091FDB14B269AB4
S11326F00A93B14B002A01D000F08FFD00F08FFD4A
S113270000232B60E1E7069E079F00220023300090
S1132710390001F00FFF051E0ED00123249A136027
S1132720A64B269A0A93002A01D100F078FDA44A08
S113273026990A6000F073FD1AAB01931BAB00935A
S113274032003B00049801F027FA630005905B0D0A
S113275000D17FE03A039B4C120B144321009A4AA8
S1132760300018959E180022984B03F0FFF8984A01
S1132770984B02F07BFE984A984B01F033FF04001B
S113278030000D0003F05CFC954A964B02F06EFE9F
S113279002000B002000290001F024FF04000D00BA
S11327A003F01AFC0022039000232000290001F00A
S11327B0C7FE00280ED0039803F042FC0B00020071
S11327C02900200001F0B6FE030058425841039B43
S11327D01B1A039301231693039B162B0FD88249CC
S11327E0DB00C91808684968069A079B01F0BCFE1B
S11327F000284BD0039B013B0393002316931A9BA1
S11328009E1B00230B933300013B0C9304D501233F
S11328109B1B0B9300230C93039B002B38DB039A25
S11328200C9B944663440C9300230F920893229BC1
S11328300125092B00D991E0052B02DD0025043B7D
S11328402293229B981E032800D991E001F0E2FC18
S1132850828429761A9B1B9A9E18644BF218202AAC
S11328600FDD634B0698F318D84040239B1A9C4015
S1132870204303F027FC01235E4C013E0919189301
S113288071E7202306989B1A9840F2E71690B6E762
S11328900B9B039A9B1A0B935342089300230F93A9
S11328A0C5E701230E93239B002B65DD1F000D93C9
S11328B0049A546A0022626004321100143199426D
S11328C05FD96168049800F0D9FE049B20605B6ABC
S11328D01B680A930E2F00D905E1002D00D102E1F7
S11328E0069B079C14931594039B002B00DC85E046
S11328F01A000F213C4B0A40D2009B185C681B68ED
S113290010931194039B02241D11EB060AD53A4B34
S11329100D401A6A5B6A1498159902F073F90690CF
S113292007910134344E002D30D1109A119B069832
S1132930079902F067F9069007917AE00123239A38
S11329400E939446039B63445F1C0D933B1EAFDCC4
S11329500123ADE70023A5E70023F0E700230E954C
S11329602293013B00220D931F00133323929FE710
S113297001230E93023BF5E701230D931F001A0078
S1132980F4E7616852000131616096E701231D425A
S113299008D010981199E4183268736802F066FD43
S11329A0109011916D100836BDE7C0460000F07F0D
S11329B00F2700004162000044620000146200001E
S11329C0156200000000F03F01FCFFFF0000F83F2B
S11329D061436F63A787D23FB3C8608B288AC63F21
S11329E0FB799F501344D33FD062000032040000AF
S11329F012040000000010FEA8620000039B0224E1
S1132A00002B16D0149815995D420F23CA4A2B4007
S1132A10DB00D3181A685B6802F028FD00230690D7
S1132A200791C64E2D11002D00D08CE0002B00D054
S1132A3081E7169B002B00D191E0069A079B109228
S1132A401193109811990022BD4B01F079FD0028D3
S1132A5000D184E0002F00D181E00D9B002B3EDDEE
S1132A6010981199039B00225E1EB64B02F0FEFCE7
S1132A70069007910D9D0134200003F0E1FA069AB7
S1132A80079B02F0F3FC0022AF4B01F0ABFD129068
S1132A901391129B139CAD4A10931194139B9C1891
S1132AA01194002D5ED1069807990022A84B02F0DC
S1132AB05DFF109A23000690079101F055FD002850
S1132AC000D001E3A3481399844661440B0006989F
S1132AD00799109A01F034FD002800D0E8E2149B15
S1132AE0159C069307941B9B002B00DA57E1039A6D
S1132AF00E2A00DD53E1904BD2009B185C681B68E2
S1132B0008930994239B002B00DBCEE0002F00DD0B
S1132B10CBE000D0CFE20898099900228C4B02F058
S1132B20A5FC069A079B01F029FD3E0008970028A2
S1132B3000D0A4E20A9B0A9A5D1C31231370039B04
S1132B40013303939FE20122154205D0A418326891
S1132B50736802F08BFC01236D10083663E7039E53
S1132B603D0089E70A9A691E521917920E9A724B10
S1132B70C900002A4AD05B181A685B6800207649AD
S1132B8002F040F8109A119B02F0F0FE0A9B10909C
S1132B90119112930698079903F01EFA040003F0AA
S1132BA04FFA02000B000698079902F0DFFE129B11
S1132BB030345D1C1C70109A119B0690079101F033
S1132BC0BFFC002865D1069A079B00205C4902F0EF
S1132BD0CDFE109A119B01F0B3FC002800D0BEE09A
S1132BE0179B9D4200D17AE7109811990022554B0A
S1132BF002F03CFC00221090119106980799514B69
S1132C0002F034FC129506900791C3E7591808683E
S1132C104968109A119B02F029FC109011910A9CAA
S1132C20179D0698079903F0D7F9129003F008FA54
S1132C3002000B000698079902F098FE129B06907A
S1132C40079130332370179B01340022A34224D10F
S1132C50414B1098119901F0C5FC02000B00069835
S1132C60079901F081FC002800D078E0109A119BAC
S1132C700020394902F07AFE02000B0006980799F9
S1132C8001F05EFC002800D129E76B1E1A78302A77
S1132C9001D003963FE01D00F7E706980799294BFA
S1132CA002F0E4FB06900791BBE70A9E089A099B91
S1132CB00698079901F0A6FF03F08EF9040003F0CB
S1132CC0BFF9089A099B02F0D1FB0B000200069899
S1132CD0079902F04BFE2300303333700A9B751CB6
S1132CE0EB1A9F424CD102000B0001F07BFC060062
S1132CF00F0002000B000898099901F021FC00283C
S1132D002CD10898099932003B0001F013FC0028EB
S1132D1001D0E30722D40599049800F0E7FC0023CE
S1132D202B70039B249A01331360269B002B00D144
S1132D3075E21D6073E2C046D0620000A862000024
S1132D400000F03F0000244000001C400000C0FCD4
S1132D50000014400000C07C0000E03F039E6B1E96
S1132D601A78392A06D10A9A9A4207D13023137065
S1132D70130001361A7801321A708AE71D00EEE753
S1132D800022CF4B02F072FB002200230690079131
S1132D902E0001F0CFFB002800D187E7BBE70E9A95
S1132DA0002A00D187E0229A012A6EDC189A002AB0
S1132DB067D0C44A9B18089D0B9C0B9A0121D2181A
S1132DC00B920C9A0498D3180C9300F02DFD060076
S1132DD0002C0EDD0C9B002B0BDD0C9A230094427F
S1132DE000DD13000B9AE41AD21A0B920C9AD31A30
S1132DF00C93089B002B1ED00E9B002B5FD0002D44
S1132E0011DD31002A00049800F0A6FD059A0100A6
S1132E100600049800F011FD05991090049800F044
S1132E2065FC109B0593089B5A1B04D005990498D4
S1132E3000F092FD05900121049800F0F5FC0F9B31
S1132E400890002B3DDD1A000100049800F084FD79
S1132E50229B08900025012B3BDC0025069BAB42FE
S1132E6033D1079B1B03AB422FD1199B079A134203
S1132E702BD00B9B013501330B930C9B01330C932B
S1132E8023E036231A9A9B1A95E7089B7D1EAB42D2
S1132E9006DB5D1B002F0BDA0B9BDC1B00238CE78E
S1132EA0089B0895EA1A0F9B00259B180F93F1E7DE
S1132EB00B9C3B0081E7089D0B9C0E9E88E7089ABB
S1132EC0B4E7229B0025012BC7DD0F9B0120002BBB
S1132ED00BD0089B089A1B690F9303339B00D318EC
S1132EE0586800F058FC2023181A0C9BC0181F23A4
S1132EF0184000D1ABE001331B1A042B00DC9BE02B
S1132F001C23181A0B9B24181B180B930C9B1B18BF
S1132F100C930B9B002B05DD1A000599049800F017
S1132F206DFD05900C9B002B05DD1A000899049893
S1132F3000F064FD0890169B002B00D189E00899ED
S1132F40059800F0ACFD002800DB82E0039B0A2218
S1132F50013B039305990023049800F0E0FB0E9BCA
S1132F600590002B00D15DE1002331000A22049872
S1132F7000F0D5FB0D9B0600002B02DC229B022BEC
S1132F806DDC002C05DD31002200049800F036FDD4
S1132F9006003000002D11D07168049800F06EFB1B
S1132FA03100040033690C319A1C92000C3000F09B
S1132FB05CFB01222100049800F020FD0D9F0A9B78
S1132FC0013F0B93DB19370006000F93089905980E
S1132FD0FFF7CAFA39000D900400059800F05FFD70
S1132FE032000E900899049800F072FD01230C93AE
S1132FF0C36830340500002B04D10100059800F0AB
S11330004EFD0C902900049800F070FB0C9B229A52
S1133010134300D089E0069A0133134200D084E0C0
S1133020392C00D1A3E00E9B002B01DD0D9C313423
S11330300B9B5D1C1C7027E0042B00D169E70B9AE5
S11330401C33D2180B920C9AE418D31860E70300CF
S1133050F5E7002F3CDC229B022B39DD0D970D9BFD
S1133060002B0CD108990522049800F058FB089015
S11330700100059800F013FD002800DD5AE5239BAC
S11330800A9DDB43039300270899049800F02EFB64
S1133090002E00D13FE6002F05D0B74203D03900FF
S11330A0049800F023FB3100049800F01FFB32E683
S11330B008952E00E3E7002308931E00DFE7C046CF
S11330C00000244033040000039608952E0031E5E7
S11330D00E9B0D97002B00D053E70A9D0899059885
S11330E0FFF742FA0A9B30300D9A2870013504002C
S11330F0EB1A9A4278DC151E00DC012500270A9B96
S11331005D1905990122049800F078FC089905904E
S113311000F0C5FC00282FDC01D1E3072CD46B1E82
S11331201A78302AB0D11D00F9E70E9B002B07DB7B
S11331301D00229B1D4326D10123069A134222D14E
S11331400C9B002B00DC73E705990122049800F026
S113315055FC0899059000F0A2FC002804DC00D07E
S113316066E7E30700D463E7392C00D05EE70B9BE6
S11331700B9A5D1C392313706B1E1A78392A3BD0C5
S113318001321A7080E70B9B01330D930C9B002BCB
S113319005DD392CEBD00D9D01340B9B4AE70B9BCD
S11331A00F9A0D9D1C709342ABD000230A220599FF
S11331B0049800F0B4FA002305900A223900049818
S11331C0B74206D100F0ABFA070006000D9B0B9343
S11331D0FCE600F0A4FA3100070000230A22049858
S11331E000F09DFA0600F1E700230A2205990498ED
S11331F000F095FA059071E70A9A9A4205D1039B6B
S113320001330393312313703EE71D00B4E70A4BE7
S1133210269A0A93094B002A01D0269A13600A9829
S11332201DB0F0BD0D9B002B00DD56E7229B022B49
S113323000DC52E713E7C046386200004062000039
S1133240F7B58A8905000C00130760D44B68002B7E
S113325004DC0B6C002B01DC0020FEBDE76A002FB0
S1133260FAD000232E682B6080235B011A4034D0EF
S1133270606DA3895B0706D56368C01A636B002B76
S113328001D0236CC01A0200216A00232800E76AD7
S1133290B847A189431C06D12B681D2B31D82C4A71
S11332A0DA40D3072DD50023636023692360CB0460
S11332B005D5431C02D12B68002B00D16065616BDE
S11332C02E600029C8D023004433994202D028003C
S11332D000F0C4FC00206063BFE70123216A2800DA
S11332E0B847431CC5D12B68002BC2D01D2B01D07D
S11332F0162B01D12E60AFE74023A2891343A3818B
S1133300ABE740230B430120A3814042A5E70F69AB
S1133310002FA1D00B680F60DB1B019300239207E1
S113332000D14B69A360019B002B00DC94E7019B57
S11333303A00216A2800A66AB047002803DC40232B
S1133340A2891343DFE7019B3F181B1A0193EAE7A5
S1133350010040200B6970B505000C00002B01D161
S1133360002070BD002804D08369002B01D100F037
S11333705FF80B4B9C4209D16C680C22A35E002BB6
S1133380EED021002800FFF75BFFEAE7054B9C42E3
S113339001D1AC68F1E7044B9C42EED1EC68ECE758
S11333A068620000886200004862000010B50249AB
S11333B000F0B2F810BDC04655330000002310B52C
S11333C0040003604360836081814366C2810361BA
S11333D043618361190008225C30FEF73FFA054B14
S11333E024626362044BA362044BE362044B2363D1
S11333F010BDC0465940000081400000B9400000A3
S1133400E540000070B568254A1E55430E002900AA
S1133410743100F06DFC041E08D000212A00016004
S113342046600C30A0606832FEF718FA200070BDC8
S1133430836913B50400002B28D18364C364036536
S1133440134B144A1B6882620193984201D10123F1
S11334508361200000F020F86060200000F01CF878
S1133460A060200000F018F80022E06004216068E9
S1133470FFF7A4FF01220921A068FFF79FFF0222A2
S11334801221E068FFF79AFF0123A36113BDC04630
S113349000620000AD330000F8B51E4B07001E6843
S11334A0B369002B02D13000FFF7C2FF4836B4687D
S11334B07368013B04D53368002B07D03668F6E700
S11334C00C22A55E002D0DD06834F2E704213800EB
S11334D0FFF798FF30600028F0D10C2304003B6014
S11334E02000F8BD012320005B42E3810233A38165
S11334F065662560A560656025616561A561082232
S113350029005C30FEF7AAF96563A563A564E56448
S1133510E6E7C04600620000F7B504000700002695
S113352001914834002C01D13000FEBD6368A568C8
S11335300093009B013B009301D52468F2E7AB891B
S1133540012B08D90E22AB5E013304D029003800C8
S1133550019B984706436835EBE70000034B1B6863
S1133560186A002800D10248F03070471800002083
S11335707C00002070B50E001D000E23C95E90B0C3
S11335801400002907DA00232B60B3891B0611D429
S11335908023DB000FE001AA00F0D0FD0028F2DB5D
S11335A0F022029B12021340054A9B185A425341CF
S11335B02B60EDE740230020236010B070BDC046AF
S11335C000E0FFFFF7B502268B8905000C003342AB
S11335D006D0230047332360236101236361F7BDD1
S11335E001AB6A46FFF7C6FF00990700280000F008
S11335F07FFB002806D10C22A35E9A05EFD41E435C
S1133600A681E6E70D4BAB628023A28920601343B9
S1133610A381009B20616361019B002B0AD00E23D0
S1133620E15E280000F09CFD002803D00123A2895C
S11336301343A381A0893843A081D0E7AD330000B0
S113364010B5034B0100186800F052FB10BDC046D2
S113365018000020C9B28218904201D1002070479E
S113366003788B42FBD00130F6E7002310B59A4271
S113367000D110BDCC5CC4540133F8E770B5466A80
S113368004000D00002E07D11020FFF7D9FF60625F
S1133690466086600660C660666AF368002B13D0D5
S11336A0636AAA00DB689B181868002818D10121F6
S11336B00E00AE40721D9200200000F0C1FA0028F6
S11336C00CD0456086600DE021220421200000F02A
S11336D0B7FA636AF060DB68002BE1D1002070BDAB
S11336E002681A6000230361C360F8E770B5446A96
S11336F006000D00002C07D11020FFF7A1FF706217
S1133700446084600460C460002D07D0736A6A68F2
S1133710DB6892009B181A682A601D6070BDF7B5BB
S11337201E0014239C4607000C0000200D698C44E5
S1133730634619881B6851431B0C534389190E0CAB
S11337409B1989B21E0C1B045B186146013008C129
S11337508C468542ECDC002E1BD0A3689D4212DB14
S113376063683800591CFFF789FF21002369019021
S11337709A1C92000C310C30FFF777FF21003800BF
S1133780FFF7B4FF019C2B1D9B00E31801355E601D
S113379025612000FEBD0300020C0020824201D1FD
S11337A01B0410301A0E01D108301B021A0F01D16C
S11337B004301B019A0F01D102309B00002B03DB64
S11337C001305B0000D4202070470722036810B545
S11337D001001A400DD001240020234205D10230FB
S11337E0034203D0E34020000B6010BD9B080B6034
S11337F0FBE79CB21000002C01D110201B0CDAB2A4
S1133800002A01D108301B0A1A0701D104301B0910
S11338109A0701D102309B08DA07E8D45B0801D08B
S11338200130E4E72020E0E710B50C000121FFF7A8
S113383025FF01234461036110BDF0B50B69150038
S1133840126989B00C00934201DA2C000D0027693B
S11338502E69A268BB1961680193934200DD0131AE
S1133860FFF70CFF030014330093009ABB1994462E
S11338709B009C4413000022049063451CD32A003F
S11338801434BF00E3191432B6000593931902945B
S11338900693069B9A4211D3019B002B06DD042359
S11338A05B429C4463461B68002B51D0049B019AE5
S11338B018001A6109B0F0BD04C3DEE71488002CB7
S11338C01ED00026009D029F01CF079508CD0393CB
S11338D083B2634319006B46000C9B896043CB1889
S11338E003999B19090C4118180C09180E0C9BB26A
S11338F009040B4307990B60059BBB42E4D82E6077
S113390013681B0C03931ED00026009B029C1B68AB
S1133910009807002188039D9BB2694320C82D0CA1
S113392049198E1931040B433B6008CC03991B0CD5
S11339304B437968360C89B25B1805999B191E0CA8
S1133940A142E6D80360009B043204330093A0E74D
S1133950019B013B01939FE70323F7B51340050047
S11339600E001400002B08D02249013B9A00525843
S113397000233100FFF7D3FE0600A310019336D0D5
S11339806C6A002C07D11020FFF75AFE686244606D
S113399084600460C4606F6ABC68002C07D1164957
S11339A02800FFF741FF00230400B86003600122F0
S11339B0019B13420AD0310022002800FFF73DFF8B
S11339C0070031002800FFF791FE3E00019B5B10C9
S11339D001930CD02068002807D122002100280080
S11339E0FFF72BFF0023206003600400DFE73000B3
S11339F0FEBDC0469863000071020000F0B50D00E2
S1133A0017002B69541185B0E31802930133019315
S1133A104968AB680390019A934234DB0398FFF73B
S1133A202DFE00230200060019001432A3422DDBF0
S1133A30E343DB171C402B001F21A40014192A693F
S1133A40143392009A180F4024D00131C91B8C46BC
S1133A5000211868B84001436046216002CB043459
S1133A60C1409A42F5D82160002902D0029B02335A
S1133A700193019B0398013B33612900FFF736FE54
S1133A80300005B0F0BD01315B00C4E7980011506F
S1133A900133CBE702CB02C49A42FBD8E9E70A69B7
S1133AA0036930B59B1A0ED1920014301431841876
S1133AB08918043C043922680D68AA4205D0AA4238
S1133AC0924101231343180030BDA042F1D3FAE719
S1133AD0F0B50D0085B00700110028001400FFF7B1
S1133AE0DEFF061E08D101003800FFF7C7FD0123E1
S1133AF04661036105B0F0BD01230193002804DB96
S1133B0023002C001D000023019361683800FFF797
S1133B10B5FD2F000022019B2669C3601434B30055
S1133B20E31802932B6914379B00FB1803930300DB
S1133B309446143320CC04CF0192AAB294446A462A
S1133B40614692882D0C8A1A0199090C691A151478
S1133B5049190D1492B209040A431A60039AAC4637
S1133B600433BA42E6D802991A008C4205D3043AC7
S1133B701368002B0ED00661BCE704CC91B26144FB
S1133B800D14120C5219151489B212040A43AC46CE
S1133B9004C3E8E7013EEAE7F7B51D000121089FE9
S1133BA01400FFF76BFD2B036D0006001B0B6D0D5E
S1133BB024D10193002C27D068460094FFF705FE1A
S1133BC0009C00281ED0019B20211A00091A8A405B
S1133BD0C340224372610193019CB461631E9C4102
S1133BE001343461002D18D0124BED1835232D18F3
S1133BF03D60181A099B18603000FEBD80225203F4
S1133C001343D6E77461E7E701A8FFF7DEFD01245B
S1133C10019B346173612030E4E7074BC018074B04
S1133C203860E3189B00F3185869FFF7B4FD64018A
S1133C30201ADFE7CDFBFFFFCEFBFFFFFFFFFF3FB7
S1133C404A4370B51100140000F052F8051E03D069
S1133C5022000021FDF702FE280070BD70B50500AA
S1133C60002910D00C1F2368002B00DAE418280068
S1133C7000F0AEFA1D4A1368002B05D1636014608E
S1133C80280000F0A6FA70BDA34209D92168601883
S1133C908342F3D118685B6841182160EEE7130092
S1133CA05A68002A01D0A242F9D919685818A042CA
S1133CB00BD120680918581819608242E0D11068A5
S1133CC05268411819605A60DAE7A04202D90C23FD
S1133CD02B60D5E721686018824203D110685268CE
S1133CE04118216062605C60CAE7C046940200200B
S1133CF0032370B5CD1C9D43083506000C2D1ED240
S1133D000C25A9421DD8300000F062FA254A146837
S1133D102100002919D1244C2368002B03D1300041
S1133D2000F088F920602900300000F083F9431C7A
S1133D302CD10C233000336000F04BFA03E0002D4B
S1133D40DFDA0C233360002070BD0B685B1B1AD4D0
S1133D500B2B03D90B60CC18256003E08C420ED1E9
S1133D6063681360300000F034FA200007220B303F
S1133D70231D9043C31AE7D05A42E250E4E74B684C
S1133D8063600C00EEE70C004968C2E70323C41C1F
S1133D909C43A042E0D0211A300000F04BF9431CB0
S1133DA0DAD1C6E79402002098020020936810B587
S1133DB0013B9360002B05DA9469A34208DBCBB284
S1133DC00A2B05D01368581C10601970C8B210BDB6
S1133DD0FEF7FEFAFBE7F8B506000F001400D5184D
S1133DE0AC4201D1002007E021783A003000FFF70F
S1133DF0DDFF0134431CF3D1F8BD0000F0B59FB0E2
S1133E0006000F0014000593002804D08369002BDA
S1133E1001D1FFF70DFB7F4B9F425CD17768BB89D3
S1133E201B0762D53B69002B5FD0002306AD6B6195
S1133E3020336B761033AB760294029C2378002BEC
S1133E405DD1029BE31A04930DD0049B029A3900BE
S1133E503000FFF7C0FF431C00D1CCE06A69049B2B
S1133E60944663446B612378002B00D1C3E00122A4
S1133E70002352426A6002A95432521801342B6062
S1133E80EB60AB601370AB65217805226248FFF7E5
S1133E90E1FB631C9C46002835D12968CB0604D578
S1133EA0532302AA20309B1818700B0704D5532300
S1133EB02B2002AA9B18187023782A2B2CD00020C0
S1133EC00A21099B2278303A092A00D86BE000289D
S1133ED02AD0099328E0514B9F4201D1B7689EE74D
S1133EE04F4B9F429BD1F76899E739003000FEF7AA
S1133EF0C5FA002899D0012040421FB0F0BD252BFF
S1133F009FD001349AE7444B2968C01A01238340A7
S1133F100B432B606446B7E7059B181D1B6805908F
S1133F20002B3ADB0993644623782E2B0BD163785C
S1133F30621C2A2B3FD1059B02341A1D1B68059273
S1133F40002B35DB0793217803223648FFF782FBE9
S1133F50002807D0334B2A68C01A402383401343F8
S1133F602B6001342178631C06222F4802932976A2
S1133F70FFF770FB002844D02C4B002B2FD129686D
S1133F80059B0722C90528D59B189343083305933D
S1133F906B69039A9B186B614FE75B42EB600223EA
S1133FA00B432B60BFE74B4301349B18012089E787
S1133FB001235B42C6E7002314000A201A006B6049
S1133FC021783039092903D9002BBCD00792BAE7EC
S1133FD04243013452180123F2E70733D5E705AB16
S1133FE000933A00124B29003000FDF7DBFC0390EC
S1133FF0039B0133CCD1BB895B0600D57BE70B98CF
S11340007BE705AB00933A00094B29003000FDF72C
S113401083FFECE768620000A4630000886200008C
S113402048620000AA630000AE630000A519000006
S1134030D73D0000002370B5064C0500080023603E
S1134040FDF7CAFB431C03D12368002B00D02B606F
S113405070BDC046A802002070B50C000E25495F53
S113406000F0B8F8002803DB636D1B18636570BDAE
S1134070A389024A1340A381F9E7C046FFEFFFFF7B
S1134080F8B51F008B8905000C001600DB0505D56B
S11340900E23C95E0022022300F074F8A389054AA6
S11340A028001340A38132000E23E15E3B0000F0A0
S11340B01FF8F8BDFFEFFFFF70B50C000E25495F38
S11340C000F060F8A389421C03D1054A1340A38180
S11340D070BD802252011343A3816065F8E7C04696
S11340E0FFEFFFFF10B50E23C95E00F015F810BDF9
S11340F070B50500080011000022064C22601A0069
S1134100FCF76EFD431C03D12368002B00D02B6009
S113411070BDC046A8020020002370B5064C0500FF
S113412008002360FDF76AFB431C03D12368002BBE
S113413000D02B6070BDC046A8020020002370B5DB
S1134140064C0500080011002360FDF75AFB431CD0
S113415003D12368002B00D02B6070BDA80200207F
S1134160002370B5064C050008002360FDF74EFBE4
S1134170431C03D12368002B00D02B6070BDC046C4
S1134180A802002070B50500080011000022064CAA
S113419022601A00FDF73CFB431C03D12368002B6B
S11341A000D02B6070BDC046A802002082B0002958
S11341B000D101A9101E06D0002B06D013780B6085
S11341C01078431E984102B0704702204042FAE73B
S11341D07047704770B50500080011000022064CB6
S11341E022601A00FCF7DAFC431C03D12368002B7D
S11341F000D02B6070BDC046A80200200B1E04D066
S1134200FF2A04D98A2303608B3B180070470A7085
S11342100123FAE702B4714649084900095C4900E0
S11342208E4402BC7047C046002243088B4274D3BC
S113423003098B425FD3030A8B4244D3030B8B42A3
S113424028D3030C8B420DD3FF22090212BA030CAC
S11342508B4202D31212090265D0030B8B4219D38D
S113426000E0090AC30B8B4201D3CB03C01A5241AD
S1134270830B8B4201D38B03C01A5241430B8B42F5
S113428001D34B03C01A5241030B8B4201D30B03DE
S1134290C01A5241C30A8B4201D3CB02C01A524105
S11342A0830A8B4201D38B02C01A5241430A8B42C8
S11342B001D34B02C01A5241030A8B4201D30B02B1
S11342C0C01A5241CDD2C3098B4201D3CB01C01ACB
S11342D0524183098B4201D38B01C01A52414309D5
S11342E08B4201D34B01C01A524103098B4201D3C3
S11342F00B01C01A5241C3088B4201D3CB00C01A30
S1134300524183088B4201D38B00C01A52414308A7
S11343108B4201D34B00C01A5241411A00D20146CC
S1134320524110467047FFE701B5002000F0F0F855
S113433002BDC0460029F7D076E7704703460B4319
S11343407FD4002243088B4274D303098B425FD38A
S1134350030A8B4244D3030B8B4228D3030C8B42B6
S11343600DD3FF22090212BA030C8B4202D312129C
S1134370090265D0030B8B4219D300E0090AC30B71
S11343808B4201D3CB03C01A5241830B8B4201D31E
S11343908B03C01A5241430B8B4201D34B03C01A07
S11343A05241030B8B4201D30B03C01A5241C30A7F
S11343B08B4201D3CB02C01A5241830A8B4201D3F0
S11343C08B02C01A5241430A8B4201D34B02C01ADA
S11343D05241030A8B4201D30B02C01A5241CDD27F
S11343E0C3098B4201D3CB01C01A524183098B42CA
S11343F001D38B01C01A524143098B4201D34B01B3
S1134400C01A524103098B4201D30B01C01A524115
S1134410C3088B4201D3CB00C01A524183088B429C
S113442001D38B00C01A524143088B4201D34B0085
S1134430C01A5241411A00D20146524110467047F7
S11344405DE0CA0F00D04942031000D340425340FC
S113445000229C4603098B422DD3030A8B4212D3BC
S1134460FC22890112BA030A8B420CD389019211EE
S11344708B4208D3890192118B4204D389013AD02B
S1134480921100E08909C3098B4201D3CB01C01A00
S1134490524183098B4201D38B01C01A5241430913
S11344A08B4201D34B01C01A524103098B4201D301
S11344B00B01C01A5241C3088B4201D3CB00C01A6E
S11344C0524183088B4201D38B00C01A5241D9D286
S11344D043088B4201D34B00C01A5241411A00D207
S11344E00146634652415B10104601D34042002B03
S11344F000D54942704763465B1000D3404201B582
S1134500002000F005F802BD0029F8D016E7704736
S11345107047C0468446101C62468C46191C63468C
S113452000E0C0461FB500F03FFF002801D4002181
S1134530C8421FBD10B500F099FE4042013010BDC5
S113454010B500F031FF002801DB002010BD012070
S113455010BDC04610B500F027FF002801DD002083
S113456010BD012010BDC04610B500F0B9FE0028F2
S113457001DC002010BD012010BDC04610B500F0C4
S1134580AFFE002801DA002010BD012010BDC04696
S1134590F0B5CE46474615042D0C2E0080B5070411
S11345A0140C3F0C9946030C7E435D4367436343FD
S11345B07F19340CE4199C46A54203D980235B027D
S11345C09846C4444B46514343433604360C250CA9
S11345D024046544A4195918491920000CBC9046B8
S11345E09946F0BDF8B54546DE4657464E460C039F
S11345F0E0B54E00C90F88460D00610A440F0C4314
S1134600C70019035800DB0F9B464B0A510F0B439D
S1134610760D400D1900D200D84500D1AEE0351A10
S1134620002D00DCF6E000280FD1134300D1DBE0BD
S11346306B1E002B00D037E1BA1A9742BF41641AAF
S11346407F42E41B0126170024E0C64B9E424DD056
S113465080231B041943382D00DD07E11F2D00DDE5
S113466038E12020431B9A460B005046834099466C
S113467013004846EB401843030050468240501E46
S11346808241E9401A43BA1A611A9742A4411700B9
S113469064420C1B230262D56402650A002D00D11A
S11346A0DFE0280001F046FD0300083B1F2B00DD7E
S11346B0D2E020223C00D21A9D40D4409F402543A2
S11346C09E4200DDC4E09E1B731C1F2B00DDF1E045
S11346D0202238002900D21AD840914097402C005B
S11346E00143781E8741DC4000260F437B0709D035
S11346F00F233B40042B05D03B1DBB42BF417F42EF
S1134700E4191F0023022CD5964B01369E4200D19A
S11347109AE04546944BFF081C4060077605640206
S11347200743240B760D00212403230B0C0D8F4A21
S113473024051C431440330523435B00ED075B0849
S11347402B43380019003CBC90469946A246AB4620
S1134750F8BD6446044300D111E2040067467B07B8
S1134760C6D145466007FF080743E4087D4B9E42D7
S113477030D024037605240B760DD4E7331A9A46F9
S1134780002B78DD002831D076488642AED08020D8
S1134790000401435346382B00DCE9E00A43511E70
S11347A08A410021D219BA42BF4109197C4217003B
S11347B00C192302D3D56B4B01369E4200D13AE14A
S11347C00120694B1C407B0807401F43E007074357
S11347D064088BE723003B4300D1CBE18022120322
S11347E014432403240B9EE72E007FE708001043A4
S11347F000D1B4E0581E002800D0DEE0BA18BA4256
S11348009B4164185B42E418170001262302A6D5D5
S11348100226D5E7002D6ED1701C4005400D0128FD
S113482000DCF9E0B81A844687428041E51A404228
S11348302D1A280200D489E0D71BBA4292411C1BCE
S11348405242A51AD84629E74546002400276AE7BC
S1134850454CF61A2C4049E73D002838854000278E
S11348602EE7380001F066FC20301DE70A43511E94
S11348708A41002107E7002B00D0F3E0701C4305B8
S11348805B0D012B00DCADE0364B984200D1D1E04A
S1134890BA18BA42BF4164187F42E419E7075208C4
S11348A017436408060021E72E48854200D193E0AF
S11348B01D00D0E629001F3EF140202B00D18DE0E1
S11348C04022D31A9D402F437D1EAF4100240F4345
S11348D0002644E72B000800203BD8400300202D8D
S11348E000D17DE04020451BA9400A43511E8A4166
S11348F000211A43C7E6002E50D01A4EB04257D0BA
S113490080266B429946360434434B46382B00DDEF
S1134910D6E01F2B00DD35E12026F51A2600AE4037
S1134920B2463E00DE40AC46350056462E43654650
S1134930AF407D1EAF41DC403743D71BBA429241A2
S11349400C1B5242A41A0600D846A3E664466746E6
S11349502C4300D0A2E600250026002706E71E000F
S1134960C4E6C046FF070000FFFF7FFFFFFF0F8084
S11349701F2B63DC2020C31A080098409C46834602
S113498053461000D84003005846184363469A40E3
S1134990531E9A4153460243D94003E726003E433F
S11349A006D0EB439946002BC7D0944EB042ACD10D
S11349B00C0017000600D84698E6904B9A450BD099
S11349C08246E7E6002800D09EE01800104300D19C
S11349D0E9E01C001700D846884E87E6002572E7F8
S11349E0002182E723003B43002E00D0ABE0002BE4
S11349F000D1E7E00B00134300D177E6BA18BA42BE
S1134A00BF4164187F42E419230200D4F2E07C4BD6
S1134A1017001C40060069E620003843002ED1D15F
S1134A2000285BD11C00144300D1A8E01C0017002F
S1134A30D8465BE606000024002797E650460B00A4
S1134A402038C34099465346202B00D195E040239B
S1134A5050461B1A99400A43511E8A414B46002175
S1134A601A439FE6002E30D126003E4367D0DB4335
S1134A709A46002B1CD0614EB04260D05346382B6E
S1134A8000DD96E01F2B00DD9FE02026F31A2600B0
S1134A909E409C46B34653463E00DE4033005E468D
S1134AA01E4363469F407B1E9F415346DC40374371
S1134AB0BF189742924164185242A418060078E63F
S1134AC027437C1EA741002437E74C4EB04236D022
S1134AD080265B4236049A463443CFE718001043DD
S1134AE000D103E6B81A84466745AD41E01A6D4229
S1134AF0401B050200D42CE6D71BBA4292411C1B72
S1134B005242A41AD846F1E51800104300D163E7D5
S1134B10F808670707438020E4080003044208D02C
S1134B20DD08054205D1D208590711430F002C00B6
S1134B30D8467B0FE4001C43FF00304ED6E50C0042
S1134B4017000600D2E5002B38D00B00134300D128
S1134B5042E7F808670707438020E408000304429B
S1134B60E7D0CB080342E4D1D208490711430F0030
S1134B701C00DEE700270024D5E500216BE70025B3
S1134B800027F3E54E462500203EF5404B462E0017
S1134B90202B2DD04025ED1AAC4027437C1EA74185
S1134BA000243743C9E6802400252403134E00273C
S1134BB0DCE527437C1EA741002479E70C0017009D
S1134BC00E4E93E50C00170090E556462300203E58
S1134BD0F34099465346202B0ED0402356469B1B48
S1134BE09C4027437C1EA7414B4600241F435FE79C
S1134BF00024D2E71700B2E50024F2E7FF07000023
S1134C00FFFF7FFFF0B557464546DE464E46E0B50A
S1134C104C000E0387B0834692461D008046360B37
S1134C20640DCF0F002C4FD06F4B9C4235D08023A6
S1134C30420F1B04F600134333439946C3009846BE
S1134C406A4B00269C460023644403932B031B0BEE
S1134C509B466B00ED0F50465B0D01955ED0624A9A
S1134C60934253D05A46D1008022400F120402438B
S1134C700A4393465246D1005C4A94460022634458
S1134C803800684084460290E41A16430F2E00D977
S1134C90B4E0574BB6009B599F46030033439946F3
S1134CA06CD100239846023308260393CEE7CB4603
S1134CB04146039A0197022A65D1019B4A4C9C46BE
S1134CC00023002298466BE00300334399464ED0FC
S1134CD0002E00D1BCE1300001F02CFA03000B3BA4
S1134CE01C2B00DDACE11D22D31A5A460100DA4028
S1134CF008398E401300334399465B468B409846EF
S1134D0000233C4C0026241A03939FE751465A463D
S1134D10114329D1002293460232B1E75946014397
S1134D201ED05B46002B00D19EE1584601F002FAEA
S1134D3003000B3B1C2B00DD8FE102005946083AAF
S1134D4091408B461D21CB1A5146D9400B00594640
S1134D500B4351469B469140264B00221B1A8FE77A
S1134D60002301229B468BE75146032288E7002358
S1134D709846013304260024039367E70323B146CE
S1134D8003930C2662E7032A00D15CE2019B012A0B
S1134D9000D0E4E113409C460023002400229846FE
S1134DA000211203130B0A0D12051A432305124C9A
S1134DB040462240134362465B00D2075B0813431C
S1134DC0190007B03CBC90469946A246AB46F0BDDC
S1134DD0002380229C4612039846034CE0E70023FC
S1134DE0014C00229846DBE7FF07000001FCFFFFAF
S1134DF0C06400000DFCFFFFFFFF0F80D94500D900
S1134E0039E100D134E1002346464D469A46013C3F
S1134E105B460A0E1B021A430B02170C039313047E
S1134E201B0C3900280090460193FFF7FDF902009E
S1134E30019B83465A43280039009146FFF77AFACA
S1134E40350C09040D43A9450DD95B464544013B86
S1134E50A84500D93AE1A94500D837E102235B42CD
S1134E609C464544E3444B46EB1A3900180004932E
S1134E70FFF7DAF9019B050043433900049899468A
S1134E80FFF758FA330409041B0C0B43994509D95D
S1134E9043446A1E984500D91AE1994500D817E1A0
S1134EA0023D43444A469B1A5A4612042A43039934
S1134EB09346100C0A0C914609045A46090C4E46B6
S1134EC00D001204120C4543059151437243704383
S1134ED052190E0CB218954203D980256D02AC46C6
S1134EE06044150C09041204090C28185218834252
S1134EF000D2CEE000D1C8E01D1A53469E1AB24536
S1134F0092415242AB1A9A46984500D117E13900B2
S1134F101800FFF789F9019B050043433900504607
S1134F200493FFF707FA04980B04310C19438842E1
S1134F3009D941446B1E884500D907E1884200D84D
S1134F4004E1023D4144049BCB1A18003900049348
S1134F50FFF76AF9019B82464343390004980193A1
S1134F60FFF7E8F901980B043104090C194388424E
S1134F700DD953464144013B884500D9E8E08842B5
S1134F8000D8E5E002235B429C464144E244019B95
S1134F902D04CE1A51462943059D4F462A000B0481
S1134FA0080C1B0C5A4345437B4378435B19170C8D
S1134FB0FB189D4203D980256D02AC4660441D0C4C
S1134FC012041B04120C28189B18864200D293E08A
S1134FD000D18EE001231943A04BE318002B00DC21
S1134FE099E04A0700D09EE05A46D20106D55A46B7
S1134FF09B4B1A4080239346DB00E318994A934263
S113500068DD0123029A984C1A400023944698467E
S11350100022C5E680224B46120313420AD05B46A7
S1135020134206D11A431203120BAC4688468E4C27
S1135030B6E64B461A431203120BBC468A4CAFE643
S113504003005A46283B9A4000239146984657E667
S1135050584601F06FF8203040E603005246283BE2
S11350609A400021934677E601F064F820305FE629
S1135070884500D2C7E64B46DE075D0843465B0819
S11350801E434346DB079A46C2E60025924500D3F9
S113509033E7039E5946B446E244B245AD416D42FE
S11350A04544EB180139984507D2984200D97FE06E
S11350B000D1BCE01D1A8B461FE79845FAD1039D29
S11350C05545F2D943468B461D1A16E79B46CAE658
S11350D01500E7E65A46C90852070A435B0590469D
S11350E05C0D5A460123029952021940120B8C4658
S11350F056E6002B00D16FE746444A1EB04529D935
S11351001100864200D065E7039A934200D061E71C
S113511062E7012149420120C21A382A21DD029B9B
S113512003409C4638E60F220A40042A00D15BE77C
S11351300A00111D914292415242934454E7474B55
S1135140E318002BE5DD01225242F2E71D00FAE6E6
S11351509A461CE7B04239D86ED011003AE7029360
S11351603AE71F2A3CDC20239B1A0C00584699403E
S113517098404B1E99415B46D440D340204308439A
S11351801A00430709D00F230340042B05D0010064
S1135190081D88429B415B42D21813023AD5012371
S11351A0029A01241A400023944698460022F7E507
S11351B0022149428C46039DE344AC46E244AA459D
S11351C0AD416D424544ED182D1A96E68A1E0399A9
S11351D04D008D42894149424144761803958FE739
S11351E01F204042C31A5846D8400300202A28D022
S11351F040205D46821A954029434A1E9141194335
S1135200072300220B4009D00F2300220B40080083
S1135210042BBDD1010053075202120BC9081943D4
S1135220012388460299002419408C46B8E552456A
S1135230BED88B46002560E6039D9D42C6D311006F
S113524062E70025D8E780225B4612031A43019BDC
S11352501203120B9C468846034CA1E5FF03000091
S1135260FFFFFFFEFE070000FF070000F0B54F46FA
S11352704646D6465C00C0B51F03DB0F9A46174B63
S11352800E034D0084468046360B6D0DC90F9146C2
S11352903F0B640D01209D4208D09C4201D0A542E1
S11352A00BD01CBC90469946A246F0BD63463343DE
S11352B0F7D1AC42F5D13A43F3D10120BE42F0D14B
S11352C0C845EED1514507D0002DEAD163461E43AF
S11352D03000461EB041E4E70020E2E7FF0700008B
S11352E0F0B54546DE4657464E46E0B51F033D0B36
S11352F02C4F0E034C00AB465D008446360B640D08
S1135300C90F90466D0DDB0FBC422AD0254FBD421C
S11353102DD0002C0FD130430700814678427841CC
S1135320C0B2002D17D15F463A4314D14B4600203A
S1135330002B0AD006E0002D02D15846024301D0CA
S1135340994218D04842012108433CBC90469946F2
S1135350A246AB46F0BD0028F2D00120013B184321
S1135360F3E737000743D1D002204042EDE75F4620
S11353701743CED0F8E7AC42E4DC03DA481E01213F
S11353800843E2E75E45DDD806D000205E45DCD266
S11353900123481E1843D8E7C445D3D80020C44588
S11353A0F6D3D2E7FF070000F0B54E464546DE4689
S11353B057465C00E0B51F03DB0F99462A4B0E03EA
S11353C04D00C90F8446360B6D0D8B4690463F0B3E
S11353D0640D9D4220D0244B9C4222D0002D12D13A
S11353E0304343424341DBB2002C1FD0002B0CD08E
S11353F04B460120013B034318003CBC90469946B0
S1135400A246AB46F0BD002C16D0CB4517D05B4668
S1135410594201230B43EFE7310002230143EBD14F
S1135420D9E7390002231143E6D1D7E73A43DDD166
S113543000230028E0D0EAE73A43E6D1E7E7A542B3
S1135440E5DC05DBBE42E2D807D00023BE42D3D25E
S11354505946012301390B43CEE7C445D7D800236D
S1135460C445F5D3C8E7C046FF070000F0B557466A
S11354704546DE464E46E0B50C0398464E00230BE7
S113548087B0070092469B46760DCD0F002E6BD059
S11354906D4B9E4235D080245B46420F2404DB00D2
S11354A014431C43C3009946684BA3469C460023FF
S11354B000276644029343461C035A00DB0F504600
S11354C0240B520D984600D176E05F4B9A426DD082
S11354D08023410F1B040B435C49E4008C461C43AE
S11354E0C300002062444146B6186940721C019111
S11354F0944607430F2F00D9B0E0554ABF00D25954
S113550097465B460343994600D087E000239B46B9
S1135510023308270293CEE742460192022867D05D
S1135520032800D10EE2012800D062E10023002408
S11355300022994601990140CDB2002112030B0DBE
S1135540120B1B051343434A240513401C436400F8
S1135550ED0764082C434846210007B03CBC904644
S11355609946A246AB46F0BD034399464FD05B46ED
S1135570002B00D189E1584600F0DCFD03000B3B11
S11355801C2B00DD7AE11D22D31A3A0001005C468F
S1135590DA4008398C4013008F4023439B46B946B8
S11355A000232D4E0027361A029384E753462343E3
S11355B02AD10024022096E75346234320D0002C0E
S11355C000D157E1200000F0B5FD03000B3B1C2B7C
S11355D000DD49E11D21CB1A51460200D940534652
S11355E0083A944093400C431B4A121A00207AE76D
S11355F00125019B144C1D400023002299469CE781
S11356000024002201206EE7534603206BE70023A9
S11356109B4601330427002602934CE7032381466B
S11356200C27029347E780220023002512039946A2
S1135630054C82E75C464B4602986FE75C464B4656
S1135640019502986AE7C046FF07000001FCFFFFCE
S113565000650000FFFF0F800DFCFFFF4A4649462E
S1135660170C1A0C1B041B0C08041900000C4143F2
S11356701500884619007D4379430395894629001E
S1135680150045434D44029545462D0CAA46029DFE
S11356905544A94506D98A46802149028946CA4407
S11356A051460391290C0491414609042D04090C27
S11356B088462900250C24044144240C059121002A
S11356C041438846210079438A4668434146504411
S11356D08146080C48446F43824503D9802149021E
S11356E089464F44010C8946390049440291414698
S11356F00F0404993F0C88460004C01980444146B5
S1135700049159460F0C0904090C884659438A46EA
S113571039005143894641464A435146090C8B4658
S11357207B43D2185A44934203D980235B029B469D
S1135730D94451460904090C8A46414661437C43D5
S1135740130C12044B445244A1468A463C00414681
S11357506C434D4351464D440F0C7D19A94503D963
S11357608021490288464444049F0399B846414431
S11357708B468345804141428846514608042F04A4
S1135780000C3F18584602991018894690429241DD
S11357904F44BA46524299469346C244D144CB44FC
S11357A08F42BF41C245894199459B4193459241EE
S11357B07F4249422D0C52420F435B4213437F19EF
S11357C0FF185B463C19DB0D059A64021C43430237
S11357D013435D1EAB415A46C00D034352021343AB
S11357E0E20156D501205A0803401343E20713434C
S11357F064085A48604400284DDD5A0709D00F2236
S11358001A40042A05D01A1D9A429B415B42E418AF
S11358101300E20104D58020514AC00014406044C2
S1135820504A904200DDE3E60125DB0862071A4393
S11358306402019B9146220B4405640D1D407CE6E5
S1135840802259461203114208D0144206D1224341
S11358501203120B45469946434C6EE65B461A43C7
S11358601203120B404C68E603005446283B9C404C
S11358700023B9E600F05EFC2030A6E60300283BD6
S11358809F400023BB4699468AE600F053FC203033
S113589074E6B446ADE701252A1A382A06DD019BD1
S11358A000241D4000230022994646E61F2A21DCDD
S11358B020252000AD1A1E00AB40A840D6405D1E36
S11358C0AB4130431843D440430709D00F2303406E
S11358D0042B05D00300181D98429B415B42E41839
S11358E0230221D50125019B01241D400023002210
S11358F0994622E61F2521006D42281AC14008005E
S1135900202A1DD05F35AA1A944023435C1EA3416C
S1135910072503431D400022002D09D00F22002437
S11359201A401800042AD6D1030065076402220B2A
S1135930DB082B4301259946019B00241D40FCE50F
S11359400024E2E780220125120322430199120375
S1135950120B0D409946044CEFE5C046FF030000CE
S1135960FFFFFFFEFE070000FF070000F0B54646FC
S1135970D6464F460C03C0B5CD0F4E00610A440F06
S11359800C43C1005800400D84468A460F00190399
S1135990500F490A0143C648760DA846DB0FD200D2
S11359A0844500D1D8E001204340AB4200D1A6E0B9
S11359B06046351A002D00DC05E1002810D10B00EB
S11359C0134300D1D7E06B1E002B00D04BE15346AC
S11359D09F1ABA458041641A4042241A01261EE0E7
S11359E0B34B9E4248D080231B041943382D00DD5D
S11359F019E11F2D00DD4CE120230F005B1B10007B
S1135A009A409F40E840531E9A41E9400743174398
S1135A105346DF1B611ABA45A44164420C1B23029E
S1135A2000D4C5E06402650A002D00D1F6E0280028
S1135A3000F080FB0300083B1F2B00DDE9E020227F
S1135A403C00D21A9D40D4409F4025439E4200DD35
S1135A50DBE09E1B731C1F2B00DD0AE120223800B3
S1135A60D21A290097402C009140D8407A1E9741C1
S1135A70DC40002601430F437B0709D00F233B4042
S1135A80042B05D03B1DBB42BF417F42E4191F00DC
S1135A90230225D5864B01369E4200D1AFE0854BCB
S1135AA001251C4043466207FF086402760517433C
S1135AB0240B760D1D4000212403230B0C0D7E4A7C
S1135AC024051C431440330523435B00ED075B08A6
S1135AD02B43380019001CBC90469946A246F0BDE1
S1135AE0012543466207FF081743E4081D40704B35
S1135AF09E4236D024037605240B760DDBE76346FD
S1135B00F31A002B00DC94E06046002835D0684886
S1135B108642B1D080273F043943382B00DCFDE0B6
S1135B200A43170000217A1E974157445745804184
S1135B30091944420C1923023AD55D4B01369E42A1
S1135B4000D14BE101225B4B1C407B0817401F43F3
S1135B50E207174364088FE70800104300D024E7E6
S1135B6021E723003B4300D1B9E18022120314430F
S1135B702403240B9FE72E007EE70800104300D186
S1135B80CAE0581E8446002800D0E7E0524452453B
S1135B90804164184042241817000126230207D5C7
S1135BA00226CFE764462C4300D1B3E12C006746BC
S1135BB07B0700D062E76307FF081F4301254346C4
S1135BC0E4081D4093E7002D78D1751C6D056D0D1B
S1135BD0012D00DCF2E05046801A8245BF41651A6F
S1135BE07F42ED1B8446280200D48CE05046171AED
S1135BF0BA4292410C1B5542651B984614E7012595
S1135C00434600241D40002755E72A4CF61A2C4031
S1135C1032E73D0028388540002717E7380000F0B8
S1135C2089FA203006E70A43170000217A1E9741BB
S1135C30EEE6002B00D0E5E0731C9C465B055B0D93
S1135C40012B00DC9FE01A4B9C4500D1C5E0524477
S1135C5052458041641840422418E707520817430C
S1135C606408664608E71248854200D185E01D00B5
S1135C70BCE629001F3EF140202B00D17FE04022EA
S1135C80D31A9D402F437D1EAF4100240F430026AD
S1135C908EE72B000F00203BDF40202D71D04023E6
S1135CA05D1BA9400A43511E8A4100211743AFE6F8
S1135CB0FF070000FFFF7FFFFFFF0F80002E3ED095
S1135CC0B34EB44545D0802636046D423443382D56
S1135CD000DDA8E01F2D00DD1FE12026270050462F
